:020000040800F2
:10000000684200200D190108B50100081719010800
:10001000B7010008BB010008BF0100080000000094
:10002000000000000000000000000000C301000804
:10003000C50100080000000023190108C7010008DD
:10004000271901082719010827190108271901088C
:10005000271901082719010827190108271901087C
:10006000271901082719010827190108271901086C
:10007000271901082719010827190108271901085C
:10008000271901082719010827190108271901084C
:10009000271901082719010827190108271901083C
:1000A000271901082719010827190108271901082C
:1000B00027190108D9010008E101000827190108E2
:1000C000271901082719010827190108271901080C
:1000D0002719010827190108E90100082719010853
:1000E00027190108271901082719010827190108EC
:1000F00027190108271901082719010827190108DC
:1001000027190108271901082719010827190108CB
:1001100027190108F101000827190108271901080A
:1001200027190108271901082719010827190108AB
:10013000271901082719010827190108271901089B
:1001400027190108271901082719010885A50008A2
:10015000271901082719010827190108271901087B
:10016000271901082719010827190108271901086B
:10017000271901082719010827190108271901085B
:100180002719010827190108DFF80CD015F0E4FB46
:1001900000480047A10100086842002000BFFEE7B8
:1001A00000F06AF90249087001E000F00AF9FCE782
:1001B00000000020704700BFFEE700BFFEE700BF61
:1001C000FEE77047704710B50B480068401C0A49AD
:1001D000086006F091FC10BD10B506F082FE10BD5F
:1001E00010B506F085FF10BD10B509F09AFA10BDE4
:1001F00010B509F058FB10BD7C05002010B59248E1
:10020000C089401C9049C88108468088401C00B2C3
:1002100088800846C088401C00B2C8800846008913
:10022000401C00B2088108464089401C00B2488149
:1002300008468089401C00B2888108460078012861
:1002400004D108464078401C487002E001207E49F5
:10025000087008F058FB10BD10B5012006F08BFCAB
:1002600000EE100AB8EE400ADFED780A80EE201AA0
:10027000774880ED041A03F063FC10BD10B52DED36
:10028000028B002006F077FC00EE100AB8EE400A60
:10029000DFED6E0A80EE201AB0EE418A06F0FCFB1C
:1002A00000EE100AB8EE400ADFED680A80EE201A70
:1002B000674880ED001A07F0ADFBB0EE480A07F082
:1002C00032FE6448D0ED063AB0EE633AD0ED053A1E
:1002D000F0EE632AD0ED043AB0EE632AD0ED0C3A8A
:1002E000F0EE631AD0ED0B3AB0EE631AD0ED0A3A95
:1002F000F0EE630AF6EE003A68EE233AB0EE630AD7
:10030000554A5649564801F077FCB0EE480A01F0CC
:10031000CFF85448B0EE480A04F063FC06F0BCFB8A
:1003200000EE100AB8EE400ADFED480A80EE201A0F
:10033000474880ED011ABDEC028B10BD10B52DEDC4
:10034000028B022006F017FC00EE100AB8EE400AFD
:10035000DFED3E0A80EE201AB0EE418A06F09CFBEB
:1003600000EE100AB8EE400ADFED380A80EE201ADF
:10037000374880ED021AB0EE480A00F0BDFB06F0E7
:100380008BFB00EE100AB8EE400ADFED300A80EE7B
:10039000201A2F4880ED031ABDEC028B10BD10B55A
:1003A00008F032FA10BD10B500F06BFB10BD10B5AF
:1003B0002D492E4805F0C8FE08F019FC0AF058FE39
:1003C00010BD10B52048007801283BD1284800888E
:1003D00000B228490880FFF73FFF1B48B0F904002E
:1003E000022804DB002018498880FFF747FF1648E1
:1003F000B0F90600052804DB00201349C880FFF788
:100400009DFF1148B0F908000A2804DB00200E49BE
:100410000881FFF7C4FF0C48B0F90A00142804DB78
:10042000002009494881FFF7BEFF0748B0F90C00DA
:10043000322804DB002004498881FFF7B8FF002040
:100440000149087010BD00004007002000247449D5
:1004500050070020143500202C0000202800002028
:100460002400002004350020AC310020DC2B0020CB
:100470008C0500200200002010B54FF480600AF0C7
:1004800075FE06F0D7FA07F006F906F0CDFB4FF43B
:10049000C87006F02BFF04F003FE08F030FF4FF4A5
:1004A000C87006F01DFB142007F096FB08F0B2F9A7
:1004B0004FF4E13009F0C2F800F04EFA642006F083
:1004C0000FFB0AF0CFFD07F073FF80F001000D492C
:1004D00008700D48007810B908F057FE0AE0094886
:1004E000007810B908F068FE04E00848007808B900
:1004F00008F086FE042008F0E5F906F077FB0120FD
:1005000010BD000000060020B80500206E06002087
:1005100038B50122FAA1FB4813F00AFC0446C4B125
:1005200000221146F6A014F0FCFB044614B14FF073
:10053000FF3038BD0022F2A1F24813F0F9FB044667
:100540003CB10022EEA1104613F0F2FB6FF0010067
:10055000EFE7EDA1ED4814F0A2F804463CB100220B
:10056000E7A1104613F0E4FB6FF00200E1E701227F
:10057000E7A1EA4813F007FC04463CB10022E0A1E1
:10058000104613F0D5FB6FF00300D2E76B46402214
:10059000E349E24813F0A9FC0446009878B3DF4829
:1005A00013F002FF0122DFA1DC4813F0ECFB04464C
:1005B0003CB10022D2A1104613F0BAFB6FF0030049
:1005C000B7E76B46C022D949D44813F08EFC0446E5
:1005D000009848B1D14813F0E7FE0022C8A11046A8
:1005E00013F0A6FB0120A4E7CC4813F0DDFE0022A7
:1005F000C3A1104613F09CFB6FF0030099E7FFE7DF
:10060000C64813F0D1FE0022BDA1104613F090FBA6
:100610006FF004008DE738B50022B9A1B94813F096
:1006200087FB0446C4B100221146B5A014F079FB43
:10063000044614B14FF0FF3038BD0022B0A1B148DC
:1006400013F076FB04463CB10022ADA1104613F036
:100650006FFB6FF00100EFE7ABA1AC4814F01FF89F
:1006600004463CB10022A6A1104613F061FB6FF0D6
:100670000200E1E70A22A6A1A84813F084FB044681
:100680003CB100229EA1104613F052FB6FF0030014
:10069000D2E76B464022A249A04813F01FFD044652
:1006A00074BB9E4813F080FE0A229EA19B4813F063
:1006B0006AFB04463CB1002291A1104613F038FBBE
:1006C0006FF00300B8E76B46C0229849934813F0D7
:1006D00005FD04464CB9914813F066FE002288A13E
:1006E000104613F025FB0120A6E78C4813F05CFEB2
:1006F000002283A1104613F01BFB6FF003009BE761
:10070000864813F051FE00227DA1104613F010FB25
:100710006FF0040090E710B58548814BD3E90021C4
:100720009B68C0E90E1342637D4BD3E903215B69EB
:10073000C0E9111302647F48794B18330ECB08309F
:100740000EC07B4A764B24330BCB58320BC2744815
:1007500090ED0D0A764880ED190A714890ED0E0A69
:10076000734880ED1A0A7448704C1ECC54301EC079
:1007700064386E49D1E905340A69C969C0E91A3497
:1007800042660167694BD3E909141A6ADB6AC0E95A
:100790001F43C0E91D216948644BD3E90C41D3E9EB
:1007A0000E23C0E91541C0E917236049D1E911437F
:1007B0000A6CC96CC0E91A43426601675B49D1E91A
:1007C0001434D1E91621C0E91D34C0E91F2110BD40
:1007D00010B500F07FF904F09BFF10BD10B50022AA
:1007E000012147A014F09DFA9FED550A4F4880ED76
:1007F000040A9FED530A80ED000AB7EE000A80ED6F
:10080000080A9FED500A80ED060A9FED4E0A80ED22
:10081000020A9FED4C0A80ED0A0A9FED4B0A80ED1B
:10082000050A9FED490A80ED010AB0EE000A80ED4D
:10083000090AB7EE000A80ED070AB7EE000A80ED5C
:10084000030AB7EE000A80ED0B0AB6EE000A80ED4F
:10085000100AB6EE000A80ED0C0A9FED3C0A80ED0E
:10086000140A9FED3B0A80ED120A9FED390A80EDD4
:100870000E0A9FED370A80ED160A9FED360A80EDCD
:10088000110A9FED340A80ED0D0A9FED2E0A80EDCE
:10089000150AB7EE000A80ED200AB7EE000A80EDD7
:1008A000220AB7EE000A80ED210AB7EE000A80EDB9
:1008B000240AB7EE000A80ED260AB7EE000A80EDA2
:1008C000250AB7EE000A80ED180AB7EE000A80ED9F
:1008D0001A0AB7EE000A80ED190AB7EE000A80ED99
:1008E0001C0AB7EE000A80ED1E0AB7EE000A80ED82
:1008F0001D0AFFF790FEFFF70EFFFFF769FF10BD1F
:10090000303A0000640800202F000000BC280020BE
:1009100073656E736F722E62696E0000941800200A
:10092000640700207069642E62696E00A4070020CD
:1009300014350020D4050020D82800209C29002050
:100940009A99193FCDCCCC3DCDCC0C40CDCC4C3F71
:10095000CDCC4C3D9A99993E10B5FFF7D9FD044690
:10096000002C04DAFFF73AFF012051490870FFF725
:10097000D2FEFFF72DFF10BD10B504464D4894E898
:100980000E0034300EC04C4894E80E000EC04948AA
:1009900090ED190A484880ED0D0AFFF73CFE10BDA6
:1009A00010B50446434894E80E0040300EC042485B
:1009B00094E80E000C300EC03E4890ED1A0A3E48F6
:1009C00080ED0E0AFFF727FE10BD10B504463B4828
:1009D00094E80E0008300EC0374894E80E00183036
:1009E0000EC0FFF718FE10BD10B50446314894E85C
:1009F0000E0058300EC0304894E80E0024300EC06F
:100A0000FFF709FE10BD10B52D482E49D1E9163467
:100A10004A6D096E80E81C00C16001462948D0E992
:100A20001A34426E006FC1E905340A61C861254875
:100A3000D0E91E34426FD0F88000C1E909340A625F
:100A4000C8620A46204CD4E91530D4E91714C2E92B
:100A50000E14C2E90C3010461B49D1E91942D1E904
:100A60001B31C0E91042C0E912311749D1E91D42DA
:100A7000D1E91F31C0E91442C0E91631FFF7CBFDBF
:100A800010BD10B51148008820B110480088401CE6
:100A90000E4908800D4800883C2807DD00200B49DE
:100AA00008800B48007808B9FFF7ADFF10BD0000C3
:100AB000040000201435002064070020D405002025
:100AC000A4070020D82800209C29002066040020CC
:100AD000B8040020B7EE000AFC4880ED180AB7EE13
:100AE000000A80ED1C0AB7EE000A80ED200A9FED97
:100AF000F80A80ED300A704710B52DED0E8BB0EE80
:100B0000408AF448D0ED000AB0EE600AB3EE0E1A47
:100B1000DFEDF10A01F0E9FFDFEDF00A80EE201AC7
:100B2000B3EE0E0A21EE000AED4880ED000AE94816
:100B3000D0ED010AF1EE600AB0EE600AB3EE0E1AD3
:100B4000DFEDE50A01F0D1FFDFEDE40A80EE201AC7
:100B5000B3EE0E0A21EE000AE14880ED010AE148F9
:100B6000007818BBDB48D0ED030AB0EE600A9FEDB9
:100B7000DE1ADFEDD90A01F0D3FFDFEDD80A80EEEF
:100B8000201A9FEDDA0A21EE000ABDEEC00A10EE2F
:100B9000100A00B200EE100AF8EEC00AD04890ED3C
:100BA000020A00EE880A80ED020A36E0CC4890ED99
:100BB000020ACF48D0ED000A30EEC00A10EE101A3B
:100BC000084614F046FD41EC1C0B18EE100A14F018
:100BD00040FD41EC1E0B9FEDC70B53EC102B14F0A6
:100BE000B5FC41EC1D0B53EC1C2B14F0AFFC41EC9D
:100BF0001A0BBB4890ED020A10EE101A084614F0CA
:100C000028FD41EC1B0B53EC1A2B14F0F8FB41ECC4
:100C1000190B14F061FDB2498860B148D0ED020AA9
:100C2000B0EE600A01F0CAFFAD4880ED020AB34899
:100C3000D0ED000AAA4890ED001A70EE810AB04883
:100C400090ED001A70EEC10AB0EE600A01F0B6FF36
:100C5000AC4880ED000AA948D0ED010AA04890ED0B
:100C6000011A70EE810AA84890ED001A70EEC10AD0
:100C7000B0EE600A01F0A2FFA24880ED010A9F4891
:100C8000D0ED020A964890ED021A70EE810A98485B
:100C900090ED001A70EEC10AB0EE600A01F08EFF0E
:100CA000984880ED020A90ED000AB5EEC00AF1EE18
:100CB00010FA02DD90ED000A04E0924890ED000A7F
:100CC000B1EE400AF3EE0E0A80EE201A8D4880ED58
:100CD0002D1A90ED010AB5EEC00AF1EE10FA02DD10
:100CE00090ED010A04E0874890ED010AB1EE400A58
:100CF000F3EE0E0A80EE201A824880ED2E1A90ED57
:100D0000020AB5EEC00AF1EE10FA02DD90ED020A19
:100D100004E07C4890ED020AB1EE400AF3EE0E0AC0
:100D200080EE201A774880ED2F1ADFED780A80EEEA
:100D3000880AD0ED000A90ED031A70EEC10A90ED1A
:100D4000161AF2EE041A21EE211A60EE810A20EE44
:100D5000200A80ED0C0ADFED6D0A80EE880AD0EDE6
:100D6000010A90ED041A70EEC10A90ED1A1AF2EE23
:100D7000041A21EE211A60EE810A20EE200A80ED8D
:100D80000D0ADFED620A80EE880AD0ED020A90EDCE
:100D9000051A70EEC10A90ED1E1AF2EE041A21EE49
:100DA000211A60EE810A20EE200A80ED0E0A90EDF5
:100DB000170AD0ED000A60EE200A90ED060A00EE58
:100DC000880A80ED060A90ED1B0AD0ED010A60EE5C
:100DD000200A90ED070A00EE880A80ED070A90EDE0
:100DE0001F0AD0ED020A60EE200A90ED080A00EE1C
:100DF000880A80ED080A464890ED000AF6EE000ADF
:100E000020EE200AF3EE0E0A20EE200A3D4880ED87
:100E1000090A3F4890ED000AF6EE000A20EE200A8B
:100E2000F3EE0E0A20EE200A364880ED0A0A384812
:100E300090ED000AF6EE000A20EE200AF3EE0E0A0C
:100E400020EE200A2F4880ED0B0A90ED060AD0ED27
:100E5000090AF1EE600AB4EEE00AF1EE10FA04D2EB
:100E600090ED090AB1EE400A0FE0264890ED060A1F
:100E7000D0ED090AB4EEE00AF1EE10FA02DD90EDD1
:100E8000090A02E01F4890ED060A1E4880ED060A96
:100E900090ED070AD0ED0A0AF1EE600AB4EEE00A1E
:100EA000F1EE10FA04D290ED0A0AB1EE400A34E0F5
:100EB000144890ED070AD0ED0A0AB4EEE00AF1EE0C
:100EC00010FA27DD90ED0A0A27E00000D82800205C
:100ED000CDCC4C3EDC2B0020000000000000FA438B
:100EE000602A00200C000020000020420000164371
:100EF0002C0000201F85EB51B81E09406C2A0020F1
:100F0000240000209C290020280000200AD7A33BB1
:100F100010000020FE4890ED070AFD4880ED070A0A
:100F200090ED080AD0ED0B0AF1EE600AB4EEE00A8B
:100F3000F1EE10FA04D290ED0B0AB1EE400A0FE088
:100F4000F34890ED080AD0ED0B0AB4EEE00AF1EE9A
:100F500010FA02DD90ED0B0A02E0ED4890ED080A70
:100F6000EB4880ED080A90ED000A80ED030A90ED51
:100F7000010A80ED040A90ED020A80ED050A90ED69
:100F8000000ADFEDE40AB4EEE00AF1EE10FA02D254
:100F90009FEDE00A0FE0DE4890ED000ADFEDDE0A8B
:100FA000B4EEE00AF1EE10FA02DD9FEDDB0A02E09A
:100FB000D74890ED000AD64880ED000A90ED010A6E
:100FC000DFEDD40AB4EEE00AF1EE10FA02D29FEDA2
:100FD000D10A0FE0CE4890ED010ADFEDCF0AB4EE62
:100FE000E00AF1EE10FA02DD9FEDCB0A02E0C848FC
:100FF00090ED010AC64880ED010A90ED020ADFED8E
:10100000C50AB4EEE00AF1EE10FA02D29FEDC10A71
:101010000FE0BF4890ED020ADFEDBF0AB4EEE00A30
:10102000F1EE10FA02DD9FEDBC0A02E0B84890ED47
:10103000020AB74880ED020A90ED000AD0ED0C0AD2
:1010400030EE200AD0ED060A30EE200AD0ED150A67
:1010500020EE200A80ED120A90ED010AD0ED0D0A73
:1010600030EE200AD0ED070A30EE200AD0ED190A42
:1010700020EE200A80ED130A90ED020AD0ED0E0A50
:1010800030EE200AD0ED080A30EE200AD0ED1D0A1D
:1010900020EE200A80ED140ABDEC0E8B10BD10B5B9
:1010A0002DED048B84B0F0EE408AB0EE609AB0EE85
:1010B000418A9FED9A0AB4EEC08AF1EE10FA02D28C
:1010C0009FED960A0BE09FED960AB4EEC08AF1EE12
:1010D00010FA02DD9FED920A01E0B0EE480AB0EE90
:1010E000408AB1EE680A30EE090A30EE080A8DED4A
:1010F000000A38EE890A30EE480A8DED010A38EE12
:10110000C90A30EE080A8DED020AB1EE680A30EE27
:10111000490A30EE480A8DED030A00243BE0684698
:1011200000EB840090ED000ADFED7E0AB4EEE00AE9
:10113000F1EE10FA02D29FED7B0A13E0684600EB55
:10114000840090ED000ADFED780AB4EEE00AF1EEDB
:1011500010FA02DD9FED740A04E0684600EB84009B
:1011600090ED000A684600EB840080ED000A6846B6
:1011700000EB8400D0ED000A6C4890ED000A6C484A
:1011800090ED001A01EE200A6A4800EB840080ED21
:10119000000A601CC4B2042CC1DB67480078002838
:1011A0005FD06648007870BB002429E0614800EBFE
:1011B000840090ED000ADFED620AB4EEE00AF1EE81
:1011C00010FA02D29FED5E0A13E05A4800EB840049
:1011D00090ED000ADFED540AB4EEE00AF1EE10FAE9
:1011E00002DD9FED510A04E0524800EB840090EDCF
:1011F000000A504800EB840080ED000A601CC4B275
:10120000042CD3DB3AE0FFE7002427E0494800EB59
:10121000840090ED000AB5EEC00AF1EE10FA02D299
:101220001FEDD30A13E0434800EB840090ED000A61
:10123000DFED3D0AB4EEE00AF1EE10FA02DD9FEDBB
:101240003A0A04E03B4800EB840090ED000A39487C
:1012500000EB840080ED000A601CC4B2042CD5DBD6
:101260000CE0002408E01FEDE40A324800EB8400A3
:1012700080ED000A601CC4B2042CF4DB00240EE0F4
:101280002C4800EB840090ED000ABDEEC00A10EE81
:10129000100A00B22B4921F81400601CC4B2042CBF
:1012A000EEDB4FF47A720021264806F08EF904B086
:1012B000BDEC048B10BD10B52DED028BB0EE408A55
:1012C000214890ED020A5FEDFB0A30EE200A1F482C
:1012D00080ED000A90ED000ADFED1D0AB4EEE00A91
:1012E000F1EE10FA03D201201449087002E0002048
:1012F000124908701748007880B31748007870BB0F
:10130000124890ED000AB5EEC00AF1EE10FA27E09F
:101310009C2900200000B4C20000B4420000C8C3F1
:101320000000C84300007AC400007A44080000208E
:1013300010000020A02A0020B80400200C0000208B
:101340000000484314000020DC2B00201C0000207B
:101350000000C842AC3100208004002026E016E0E6
:1013600002D29FEDFB0A0FE0FA4890ED000ADFED94
:10137000FA0AB4EEE00AF1EE10FA02DD9FEDF60A89
:1013800002E0F44890ED000AF24880ED000AB7EE62
:10139000001AF2480078EF49D1ED000AB0EE480A91
:1013A00004F036FAEE4880ED000A2EE0ED480078B1
:1013B000E8B9E84890ED000AB5EEC00AF1EE10FA7F
:1013C00002D29FEDE30A0FE0E24890ED000ADFED64
:1013D000E60AB4EEE00AF1EE10FA02DD9FEDE20A51
:1013E00002E0DC4890ED000ADA4880ED000A9FED4B
:1013F000D81ADA480078D749D1ED000AB0EE480A89
:1014000004F006FAD64880ED000AD54890ED000AAF
:10141000B5EEC00AF1EE10FA02D29FEDCD0A0FE050
:10142000CF4890ED000ADFEDD10AB4EEE00AF1EE0C
:1014300010FA02DD9FEDCD0A02E0C94890ED000AE6
:10144000C74880ED000A90ED000A5FED4B0A80EE80
:10145000201AC74890ED000A71EE400A9FEDC50AB8
:1014600028EE001A90ED000A01EE200A80ED000A35
:1014700090ED000AB5EEC00AF1EE10FA02D29FED2F
:10148000B40A0FE0BA4890ED000AF7EE000AB4EE95
:10149000E00AF1EE10FA02DDB7EE000A02E0B4480D
:1014A00090ED000AB44880ED000ABDEC028B10BD3F
:1014B00000B52DED028B83B0B0EE408AAF4890EDC1
:1014C000120AF3EE0E0A80EE201A9FEDAD0A21EE0D
:1014D000000A8DED000AD0ED130AB3EE0E1A80EE6D
:1014E000810ADFEDA70A20EE200A8DED010A90EDBA
:1014F000140AF3EE0E0A80EE201A9FEDA20A21EEE6
:10150000000A8DED020A9DED000A9F4880ED000A59
:101510009DED010A80ED010A9DED020A80ED020AAF
:1015200090ED000ADFED990AB4EEE00AF1EE10FA50
:1015300002D29FED960A0FE0934890ED000ADFED8E
:10154000900AB4EEE00AF1EE10FA02DD9FED8C0A8B
:1015500002E08D4890ED000A8B4880ED000A90ED86
:10156000010ADFED8A0AB4EEE00AF1EE10FA02D2C7
:101570009FED860A0FE0844890ED010ADFED800AB6
:10158000B4EEE00AF1EE10FA02DD9FED7D0A02E012
:101590007D4890ED010A7C4880ED010A90ED020A39
:1015A000DFED7B0AB4EEE00AF1EE10FA02D29FED15
:1015B000780A0FE0744890ED020ADFED720AB4EE8B
:1015C000E00AF1EE10FA02DD9FED6E0A02E06E48CD
:1015D00090ED020A6C4880ED020ADFED6E0A80EEA3
:1015E000880A6D48D0ED0A0A6C4890ED001A70EE3A
:1015F000C10A20EE200A6A4880ED0F0ADFED650A75
:1016000080EE880A6448D0ED0B0AF1EE600A634868
:1016100090ED011A70EEC10A20EE200A604880EDBC
:10162000100ADFED5C0A80EE880A5B48D0ED0C0AF8
:10163000F1EE600A594890ED021A70EEC10A20EEF0
:10164000200A574880ED110ADFED520A80EE880A21
:10165000D0ED160A90ED0F1AFAEE041A21EE211AB7
:1016600060EE810A20EE200A80ED0C0ADFED490AC7
:1016700080EE880AD0ED1A0A90ED101AFAEE041ADC
:1016800021EE211A60EE810A20EE200A80ED0D0A7B
:10169000DFED400A80EE880AD0ED1E0A90ED111AA7
:1016A000FAEE041A21EE211A60EE810A20EE200AD9
:1016B00080ED0E0A344890ED000A3748D0ED0A0A52
:1016C00030EE600AF7EE000A20EE200A344880ED82
:1016D000000A2D4890ED010A2F48D0ED0B0A30EE9C
:1016E000200AF7EE000A20EE200A2D4880ED010ABC
:1016F000254890ED020A2848D0ED0C0A30EE200A69
:10170000F7EE000A20EE200A254880ED020A90ED4F
:10171000000AB5EEC00AF1EE10FA02DD90ED000A03
:1017200004E01F4890ED000AB1EE400ADFED140A14
:1017300080EE201A1A4880ED2D1A90ED010AB5EEC0
:10174000C00AF1EE10FA2DDD90ED010A2FE0000045
:10175000000000001C0000200000FA43B804002034
:1017600008000020800400200000AF43000048442F
:10177000200000203433FB41100000209C29002071
:101780000000964300001643782A0020000096C30C
:10179000000016C36F12033B14350020842A00207A
:1017A000D8280020FE4890ED010AB1EE400A5FED16
:1017B0000C0A80EE201AFA4880ED2E1A90ED020AEB
:1017C000B5EEC00AF1EE10FA02DD90ED020A04E077
:1017D000F34890ED020AB1EE400A5FED160A80EE82
:1017E000201AEF4880ED2F1A90ED000AD0ED0F0A75
:1017F00030EE600AD0ED170A60EE200A90ED060A7E
:1018000000EE880A80ED060A90ED010AD0ED100A7C
:1018100030EE600AD0ED1B0A60EE200A90ED070A58
:1018200000EE880A80ED070A90ED020AD0ED110A59
:1018300030EE600AD0ED1F0A60EE200A90ED080A33
:1018400000EE880A80ED080AD64890ED000AF6EE10
:10185000000A20EE200A5FED360A20EE200AD0486A
:1018600080ED090ACF4890ED000AF6EE000A20EE5E
:10187000200A5FED3D0A20EE200AC94880ED0A0AE1
:10188000C84890ED000AF6EE000A20EE200A5FED4F
:10189000440A20EE200AC24880ED0B0A90ED060AA9
:1018A000D0ED090AF1EE600AB4EEE00AF1EE10FAAA
:1018B00004D290ED090AB1EE400A0FE0B84890ED6D
:1018C000060AD0ED090AB4EEE00AF1EE10FA02DDE4
:1018D00090ED090A02E0B24890ED060AB04880EDAA
:1018E000060A90ED070AD0ED0A0AF1EE600AB4EE9E
:1018F000E00AF1EE10FA04D290ED0A0AB1EE400AC5
:101900000FE0A74890ED070AD0ED0A0AB4EEE00A0E
:10191000F1EE10FA02DD90ED0A0A02E0A04890ED27
:10192000070A9F4880ED070A90ED080AD0ED0B0AE0
:10193000F1EE600AB4EEE00AF1EE10FA04D290ED96
:101940000B0AB1EE400A0FE0954890ED080AD0ED81
:101950000B0AB4EEE00AF1EE10FA02DD90ED0B0A8C
:1019600002E08F4890ED080A8D4880ED080A90ED5E
:10197000300AF7EE000A30EEC00AD0ED150A20EE6C
:10198000200AD0ED000A90ED0C1A70EE810A90ED5D
:10199000061A70EE810A60EE200A90ED301A824835
:1019A000D0ED2D1A9FED810A9FED812A02EE210ACA
:1019B000B5EEC00AF1EE10FA02D21FED9B0A1BE051
:1019C0007948D0ED2D1A9FED790A9FED792A02EE24
:1019D000210AF7EE001AB4EEE10AF1EE10FA02DD88
:1019E000B7EE000A08E07048D0ED2D1A9FED6F0A9F
:1019F0009FED6F2A02EE210A21EE000A6D4890ED5C
:101A0000001A40EE010AB0EE000A20EE800A644897
:101A100080ED120A90ED300AF7EE000A30EEC00AAF
:101A2000D0ED190A20EE200AD0ED010A90ED0D1A32
:101A300070EE810A90ED071A70EE810A60EE200ABE
:101A400090ED301A5848D0ED2E1A9FED580A9FEDB0
:101A5000582A02EE210AB5EEC00AF1EE10FA02D2BF
:101A60001FEDC50A1BE05048D0ED2E1A9FED4F0A1E
:101A70009FED4F2A02EE210AF7EE001AB4EEE10ABA
:101A8000F1EE10FA02DDB7EE000A08E04648D0EDAC
:101A90002E1A9FED460A9FED462A02EE210A21EEFC
:101AA000000A444890ED011A40EE010AB0EE000A27
:101AB00020EE800A3A4880ED130A90ED300AF7EEE6
:101AC000000A30EEC00AD0ED1D0A20EE200AD0ED4B
:101AD000020A90ED0E1A70EE810A90ED081A70EE6F
:101AE000810A60EE200A90ED301A2F48D0ED2F1AAF
:101AF0009FED2E0A9FED2E2A02EE210AB5EEC00AB6
:101B0000F1EE10FA02D21FEDEE0A1BE02648D0EDEE
:101B10002F1A9FED260A9FED262A02EE210AF7EEE4
:101B2000001AB4EEE10AF1EE10FA02DDB7EE000A97
:101B300008E01D48D0ED2F1A9FED1C0A9FED1C2ACE
:101B400002EE210A21EE000A1A4890ED021A40EE38
:101B5000010AB1EE000A20EE800A114880ED140A55
:101B6000B0EE480AFFF7A7FB0D48D0ED141AB0EE0F
:101B7000611AD0ED131AF0EE610AD0ED121AB0EE30
:101B8000610AFFF78CFA064890ED000A80ED030A1F
:101B900090ED010A80ED040A90ED020A0CE00000CD
:101BA000D8280020100000209C2900206666E63E10
:101BB000CDCC0C3F782A002080ED050A0C4890ED32
:101BC0000A0A0C4880ED000A094890ED0B0AB1EEB4
:101BD000400A084880ED010A054890ED0C0AB1EE74
:101BE000400A044880ED020A03B0BDEC028B00BD40
:101BF00014350020842A002070B52DED108BB0EE36
:101C0000408AB0EE60EAF0EE41EAB0EE61FAF0EE42
:101C1000429AB0EE629AF0EE438A04460D461646AA
:101C20009FEDFE0A28EE000AF3EE040A20EE200AD9
:101C3000F0EE40AAFA48D0ED080A60EEA00A90ED56
:101C4000091AD0ED091A41EE210A90ED0A1AD0EDD9
:101C50000A1A41EE210AB0EE600A00F0B1FDF14827
:101C600080ED000A90ED000AB5EEC00AF1EE10FA20
:101C700038D0EB48D0ED080AEA4890ED001A80EE23
:101C8000810AE948D0ED000A70EE600A90ED000A82
:101C90000AEEA00A80ED000AE148D0ED090AE14809
:101CA00090ED001A80EE810ADF48D0ED010A70EE57
:101CB000600A90ED010A0AEEA00A80ED010AD848F8
:101CC000D0ED0A0AD74890ED001A80EE810AD64876
:101CD000D0ED020A70EE600A90ED020A0AEEA00A48
:101CE00080ED020AD14AD049D14803F08DFCCF489B
:101CF000D0ED000A60EEA00A90ED011AD0ED011AB5
:101D000041EE210AB0EE600A00F05AFDC94880EDAC
:101D1000000AC64890ED000AB5EEC00AF1EE10FACE
:101D200036D090ED010AB5EEC00AF1EE10FA2FD0D0
:101D300090ED020AB5EEC00AF1EE10FA28D0BD48C7
:101D400090ED000AB5EEC00AF1EE10FA20D0B748C7
:101D500090ED000AB748D0ED000A80EE201AB0EEF0
:101D600041BAB24890ED010AB248D0ED000A80EEC7
:101D7000201AF0EE41BAF0EE4B0AB0EE6B0A00F01A
:101D800064FCDFEDAD0A20EE200AAC4880ED000ACD
:101D9000AB4890ED010AD0ED030A20EE200AD0ED09
:101DA000000A90ED021A00EEC10AF0EE000A20EEE1
:101DB000200A9F4880ED000AA14890ED000AD0ED6E
:101DC000010A20EE200AD0ED020A90ED031A00EE7F
:101DD000810AF0EE000A20EE200A954880ED010A03
:101DE000974890ED010A20EE000AD0ED020A90ED2E
:101DF000021A00EE810AF7EE000AB0EE001A41EE78
:101E0000400A8B48C0ED020A8E48007800285ED058
:101E10008C48007802280CD19FED8B0A8B4880ED0E
:101E2000000A9FED890A80ED010A9FED870A80ED87
:101E3000020A864890ED000A7D4890ED001ADFED19
:101E4000841AF0EE690A41EEC10A9FED821A60EE33
:101E5000810A9FED811A00EE810A7C4880ED000A1C
:101E600090ED010A724890ED011ADFED791AF0EE5B
:101E7000490A41EEC10A9FED771A60EE810A9FED93
:101E8000761A00EE810A714880ED010A90ED020A8F
:101E9000674890ED021ADFED6E1AF0EE680A41EE27
:101EA000C10A9FED6C1A60EE810A9FED6B1A00EE7D
:101EB000810A664880ED020A62480078401C614948
:101EC000087008460078522801DB002008705F483F
:101ED00090ED000A564890ED001ADFED5D1AF0EE25
:101EE000690A41EEC10A9FED5B1A11EE200A5B48B8
:101EF00080ED000A554890ED010A4D4890ED011A19
:101F0000DFED531AF0EE490A41EEC10A9FED511A76
:101F100011EE200A514880ED010A4C4890ED020A6A
:101F2000434890ED021ADFED4A1AF0EE680A41EEDE
:101F3000C10A9FED481A11EE200A484880ED020AB6
:101F400090ED000A3A48D0ED000A20EE200A4348FE
:101F5000D0ED010A364890ED011A00EE810A3F48A3
:101F6000D0ED020A324890ED021A00EE810A3C4898
:101F700080ED020A69EEA90A49EE090A48EEA80AAC
:101F8000B0EE600A00F01CFC364880ED000AF5EE69
:101F9000C09AF1EE10FA02DDB0EE690A01E0B1EE8E
:101FA000690ADFED310AB4EEE00AF1EE10FA7DD2F3
:101FB000B5EEC09AF1EE10FA02DDB0EE490A01E08A
:101FC000B1EE490ADFED280AB4EEE00AF1EE10FAAC
:101FD0006CD2F5EEC08AF1EE10FA02DDB0EE680ABE
:101FE00001E0B1EE680ADFED200AB4EEE00AF1EE9E
:101FF00010FA5BD21B4890ED000AC9EE800AF0EEA1
:10200000609A90ED000AC9EE000AB0EE609A90ED79
:10201000000AC8EE800AF0EE608A27E0C3F5C840E7
:10202000D405002050000020382B0020082B002071
:10203000C02A00204C000020333365425C000020A1
:102040003000002054000020000000002C2B002055
:10205000000080455C201940CDCC4C3C202B00205A
:10206000142B0020400000200080894590ED000ADC
:10207000DFEDFE0AB4EEE00AF1EE10FA54DD90ED69
:10208000000A5FED070AB4EEE00AF1EE10FA4BD257
:10209000F74890ED020A20EE090AD0ED010A08EE99
:1020A000E00AF44880ED030AF14800E033E090EDE7
:1020B000000A20EE280AD0ED020A09EEE00AED48F7
:1020C00080ED040A1FED2B0A28EE000AF7EE000A45
:1020D00020EE20AA90ED030AD0ED060A70EE600A09
:1020E00090ED060A0AEE200A80ED060A90ED040A39
:1020F000D0ED070A70EE600A90ED070A0AEE200A9A
:1021000080ED070A90ED060A80ED000A90ED070ABF
:1021100080ED010A08E01FED340AD64880ED000A80
:102120001FED370A80ED010AD24890ED090AD0ED83
:10213000000A1FED3B1A60EE810AB0EE001A60EE55
:10214000810A00EE880A80ED090A90ED0A0AD0EDB6
:10215000010A1FED431A60EE810AB0EE001A60EE2C
:10216000810A00EE880A80ED0A0A90ED0B0AD0ED94
:10217000020A1FED4B1A60EE810AB0EE001A60EE03
:10218000810A00EE880A80ED0B0A90ED090ADFED66
:10219000BA0AB4EEE00AF1EE10FA02D29FEDB60AE6
:1021A0000FE0B44890ED090ADFEDB40AB4EEE00A9E
:1021B000F1EE10FA02DD9FEDB10A02E0AD4890EDBC
:1021C000090AAC4880ED090A90ED0A0ADFEDAA0A77
:1021D000B4EEE00AF1EE10FA02D29FEDA70A0FE08A
:1021E000A44890ED0A0ADFEDA50AB4EEE00AF1EE8C
:1021F00010FA02DD9FEDA10A02E09E4890ED0A0A66
:102200009C4880ED0A0A90ED0B0ADFED9B0AB4EEC4
:10221000E00AF1EE10FA02D29FED970A0FE095481E
:1022200090ED0B0ADFED950AB4EEE00AF1EE10FA3C
:1022300002DD9FED920A02E08E4890ED0B0A8D4878
:1022400080ED0B0A8A4890ED020AB5EEC00AF1EE65
:1022500010FA2ADD8A48007898B18A48D0ED000A41
:10226000894890ED001A70EEC10AB0EE600A00F0E5
:10227000A5FCDFED860A20EE200A854880ED000AE5
:1022800018E08048D0ED000A7F4890ED001A70EE0B
:10229000C10AB0EE600A00F091FCDFED7E0A20EE8C
:1022A000200A7B4880ED000A04E01FED990A784877
:1022B00080ED000A6F4890ED000AD0ED090A30EE7B
:1022C000200ADFED750A20EE200A694890ED001A19
:1022D0006F48D0ED001AF0EE4E0A41EE610A9FED14
:1022E0006F1A00EE810A634880ED0C0A90ED010A36
:1022F000D0ED0A0A30EE200ADFED670A20EE200A50
:102300005B4890ED011A6248D0ED001AF0EE6E0ABB
:1023100041EE610A9FED611A00EE810A554880ED99
:102320000D0A5348D0ED020A594890ED001AB0EE5C
:102330004F0A00EEC10ADFED590A20EE200A4D488F
:1023400080ED0E0A564890ED010AB1EE400A494868
:10235000D0ED0C0A20EE200A5148D0ED020A454883
:1023600090ED0D1A00EEC10A4D48D0ED030A414828
:1023700090ED0E1A00EEC10A4948D0ED000A40EE79
:10238000080AC0ED000A90ED000A3A48D0ED0C0AA8
:1023900020EE200A4248D0ED020A364890ED0E1A8F
:1023A00000EE810A3E48D0ED030A324890ED0D1A46
:1023B00000EEC10A3A48D0ED010A40EE080AC0ED2D
:1023C000010A90ED000A2B48D0ED0D0A20EE200AFC
:1023D0003348D0ED010A274890ED0E1A00EEC10AED
:1023E0002F48D0ED030A234890ED0C1A00EE810A25
:1023F0002B48D0ED020A40EE080AC0ED020A90ED2B
:10240000000A1C48D0ED0E0A20EE200A2448D0ED28
:10241000010A184890ED0D1A00EE810A2048D0ED0F
:10242000020A144890ED0C1A00EEC10A1C48D0EDC7
:10243000030A40EE080AC0ED030AD0ED000A60EE80
:10244000A00A90ED011AD0ED011A41EE210A90ED9B
:10245000021AD0ED021A41EE210A90ED031AD0EDD6
:10246000031A41EE210AB0EE600A1BE000806D45C0
:10247000C02A0020CC2A002034FA0EBD34FA0E3DCA
:10248000B80400205C0000202C00002090C2753DA4
:10249000580000206766E63E9A99993E34FA8E3CD1
:1024A0003000002000F08CF95C4880ED000A5C48A8
:1024B00090ED000A5948D0ED000A80EE201A5848E5
:1024C00080ED001A90ED010A5448D0ED000A80EE2C
:1024D000201A534880ED011A90ED020A4F48D0EDC2
:1024E000000A80EE201A4E4880ED021A90ED030A91
:1024F0004A48D0ED000A80EE201A494880ED031AC0
:1025000090ED011A21EE011AD0ED021A90ED022A87
:1025100001EE821AF7EE001AB0EE002A42EE411ADE
:10252000F0EE610A90ED001AD0ED011A21EE211AA9
:10253000D0ED021A90ED032A01EE821AF0EE001A95
:1025400021EE211AB0EE410A00F07FF8DFED350AE6
:1025500020EE200A84ED000A314890ED010AD0ED0A
:10256000030A20EE200AD0ED000A90ED021A00EED8
:10257000C10AF0EE000A20EE200A10EE101A0846FA
:1025800013F067F841EC1D0BB0EE4D0AF0EE6D0A4A
:1025900013F09AFAB0EE40CAF0EE60CA9FED220B3B
:1025A00053EC102B51EC1C0B12F0D0FF41EC1B0B29
:1025B00013F092F828601A4890ED001A21EE011AE3
:1025C000D0ED011A90ED012A01EE821AF7EE001A01
:1025D000B0EE002A52EE011AF0EE610A90ED011AF7
:1025E000B1EE411AD0ED021A21EE211AD0ED001AF7
:1025F00090ED032A01EEC21AF0EE001A21EE211A24
:10260000B0EE410A00F021F8DFED060A20EE200AC4
:1026100086ED000ABDEC108B70BD00004400002068
:1026200030000020333365420000006066A64C4055
:10263000F0EE400AF5EEC00AF1EE10FA02DBB0EE61
:10264000600A7047B1EE600AFBE700B5B0EE403AB1
:10265000B0EE602AB5EEC03AF1EE10FA04D0B5EE55
:10266000C02AF1EE10FA02D19FEDFB1A99E0B0EE0C
:10267000430AFFF7DDFFF0EE403AB0EE420AFFF703
:10268000D7FFF0EE402AF4EEE23AF1EE10FA02D271
:1026900083EEA24A01E082EEA34A9FEDF00AB4EE77
:1026A000C04AF1EE10FA02D2F0EE441A2DE0DFED4E
:1026B000EC0AB6EE000A14EE200AF0EE404ABDEE37
:1026C000E40A10EE100A00EE100AB8EEC00A34EE6A
:1026D000C00AF0EE404AE34901EB800191ED000AA7
:1026E000F0EE401ADF4A411C02EB810191ED000A35
:1026F000114601EB8001D1ED000A70EE600AB0EEE8
:10270000610A00EEA40AF0EE401AF4EEE32AF1EEBC
:1027100010FA20DDB5EEC02AF1EE10FA0ADBB5EEB4
:10272000C03AF1EE10FA02DBB0EE611A39E0B1EE18
:10273000611A36E09FEDCC1AB5EEC03AF1EE10FA10
:1027400004DB31EE610AB0EE401A2AE031EEC10A34
:10275000B0EE401A25E0B5EEC03AF1EE10FA10DB0B
:102760009FEDC21AB5EEC02AF1EE10FA04DB31EE8D
:10277000610AB0EE401A14E031EE210AB0EE401AC0
:102780000FE09FEDBB1AB5EEC02AF1EE10FA04DBA4
:1027900031EE210AB0EE401A03E031EE610AB0EEEC
:1027A000401AB0EE410A00BD00B5B0EE405AF0EE5E
:1027B000605AF0EE450AB0EE650AFFF746FF00BD2D
:1027C000B0EE401AB7EE080AB0EE402AB6EE000AA4
:1027D00021EE000AF0EE401AF0EE410A10EE900AE7
:1027E000A449A1EB600000EE900A61EEA02AB7EECA
:1027F000080A02EEE00A20EE200AF0EE400A61EE3E
:10280000A02AB7EE080A02EEE00A20EE200AF0EE57
:10281000400A21EE200A704710B52DED0A8BB0EE6C
:10282000409AF0EE609A9FED940B53EC102B51EC14
:10283000190B12F021FF18D29FED910B53EC102BC6
:1028400051EC190B12F082FE41EC1B0B9FED8E0B2D
:1028500053EC102B12F0D3FD41EC1A0B53EC192B57
:1028600012F074FE41EC180B17E09FED850B53EC52
:10287000102B51EC190B12F069FE41EC1B0B9FED74
:10288000820B53EC102B12F05EFE41EC1A0B53EC52
:10289000192B12F05BFE41EC180B9FED770B53ECFC
:1028A000102B51EC180B12F0E7FE20D29FED780BA5
:1028B00053EC102B51EC180B12F0A1FD41EC1C0B4A
:1028C0009FED750B53EC102B12F040FE41EC1B0BEF
:1028D0009FED6F0B53EC102B12F091FD41EC1A0B96
:1028E00053EC182B12F032FE41EC180B1FE09FED59
:1028F000680B53EC102B51EC180B12F021FE41EC3D
:102900001C0B9FED670B53EC102B12F01FFE41ECDC
:102910001B0B9FED5F0B53EC102B12F070FD41EC85
:102920001A0B53EC182B12F011FE41EC180BB0EE01
:10293000480AF0EE680ABDEC0A8B10BD10B52DED0B
:10294000068BB0EE408AF0EE608A01249FED560BB4
:1029500053EC102B51EC180B12F0A6FE0AD89FED89
:10296000520B53EC102B51EC180B12F0E9FD41EC1B
:10297000180BA41E204612F05BFE41EC190BB0EEC2
:10298000480AF0EE680AFFF747FFB0EE40AAF0EE03
:1029900060AA53EC192B51EC1A0B12F0D7FD41EC45
:1029A000100BBDEC068B10BD10B52DED088BB0EEF5
:1029B000408AF0EE608A01249FED3D0B53EC102B12
:1029C00051EC180B12F01BFD41EC180B9FED360B70
:1029D00053EC102B51EC180B12F066FE0AD8A41E13
:1029E0009FED310B53EC102B51EC180B12F0A8FD9E
:1029F00041EC180B204612F01BFE41EC1A0BB0EE16
:102A0000480AF0EE680AFFF799FFB0EE40BAF0EE20
:102A100060BA53EC1A2B51EC1B0B12F097FD41ECF2
:102A2000190B12F059FE00EE100ABDEC088B10BD18
:102A3000B0EE401AB5EEC01AF1EE10FA3CDD31EE00
:102A4000600AB5EEC00AF1EE10FA37D2DFED021AD5
:102A5000B0EE610A32E00000000000008180803B9F
:102A60000000804360000020DB0F4940DB0FC93FBE
:102A7000DB0FC9BFDF59375F000000000000000016
:102A8000000000602FF0D93F00000060305FF43F8D
:102A9000000000000000F03F000000C0CCCCCCBF24
:102AA000000000C0CCCCCC3FF1D4C853FB2109407E
:102AB000F1D4C853FB21F93FB0EE410A7047B0EEA4
:102AC000401AB5EEC01AF1EE10FA0BD231EE200A20
:102AD000B5EEC00AF1EE10FA06DD5FED211AB0EE98
:102AE000610A01E0B0EE410A7047F0EE401AF4EEE0
:102AF000E01AF1EE10FA09DD31EEC10AB4EEE00A97
:102B0000F1EE10FA0BD2B0EE600A08E031EE810A65
:102B1000B4EEE00AF1EE10FA01DDB0EE600A7047A3
:102B2000F0EE401AB1EE412A32EE202AB4EEE12A4C
:102B3000F1EE10FA09D231EE202AB4EEE12AF1EEDC
:102B400010FA02DDB0EE600A01E0B0EE610A7047F3
:102B500010B52DED028BB0EE408AF0EE608A9FED4D
:102B6000730B53EC102B51EC180B12F09DFD0CD293
:102B70009FED700B53EC102B51EC180B12F0E0FC96
:102B800041EC100BBDEC028B10BD9FED6C0B53ECB8
:102B9000102B51EC180B12F06FFD0AD29FED650B54
:102BA00053EC102B51EC180B12F029FC41EC100BDC
:102BB000E8E7B0EE480AF0EE680AE3E7F0EE400A14
:102BC0009FED600AF4EEC00AF1EE10FA04DD9FED0D
:102BD0005E0A30EEC00A70479FED5C0AF4EEC00A50
:102BE000F1EE10FA04D29FED580A30EE800AF2E7B7
:102BF000B0EE600AEFE7F0EE400AF5EEC00AF1EE43
:102C000010FA02DDB0EE600A01E0B1EE600A90ED6C
:102C1000041AB4EEC10AF1EE10FA0CDDF5EEC00AAA
:102C2000F1EE10FA04D291ED040AB1EE400A7047B9
:102C300091ED040AFBE7F5EEC00AF1EE10FA02DDB1
:102C4000B0EE600A01E0B1EE600A90ED031AB4EE56
:102C5000C10AF1EE10FA0CDDF5EEC00AF1EE10FA41
:102C600004D291ED030AB1EE400AE0E791ED030AC8
:102C7000DDE7F5EEC00AF1EE10FA02DDB0EE600A13
:102C800001E0B1EE600A90ED021AB4EEC10AF1EE75
:102C900010FA0CDDF5EEC00AF1EE10FA04D291ED57
:102CA000020AB1EE400AC2E791ED020ABFE7F5EE73
:102CB000C00AF1EE10FA02DDB0EE600A01E0B1EEFA
:102CC000600A90ED011AB4EEC10AF1EE10FA0CDDC3
:102CD000F5EEC00AF1EE10FA04D291ED010AB1EE60
:102CE000400AA4E791ED010AA1E7F5EEC00AF1EE72
:102CF00010FA02DDB0EE600A01E0B1EE600A90ED7C
:102D0000001AB4EEC10AF1EE10FA0CDDF5EEC00ABD
:102D1000F1EE10FA04D291ED000AB1EE400A86E716
:102D200091ED000A83E71FEDB40A80E70000000080
:102D30000080664000000000008076400000000037
:102D4000008066C0000034430000B443000034C378
:102D500070B505460C462146F74802F0A8F9214611
:102D6000F54806F01AFD70BD70B504460D46AA2060
:102D7000F14908704870EF2088700220C87008463A
:102D8000047145710026002005E0EB49095C3144DF
:102D9000CEB2411CC8B20628F7DBE748867107218E
:102DA000FFF7D6FF70BD70B504460D46AA20E24974
:102DB00008704870EE2088700220C87008460471C0
:102DC00045710026002005E0DB49095C3144CEB2A4
:102DD000411CC8B20628F7DBD74886710721FFF7E8
:102DE000B7FF70BD2DE9F0432DED028B83B0054692
:102DF0000E4617469846B0EE408A0024AA22214685
:102E0000641CCD4842542146641C4254042221468D
:102E1000641C425400222146641C42542146641C16
:102E200045542146641C465401979DF807202146CD
:102E3000641C42549DF806202046611CCCB2BE4959
:102E40000A549DF805202046611CCCB2BA490A54A8
:102E50009DF804202046611CCCB2B7490A54CDF835
:102E600004809DF807202046611CCCB2B2490A5468
:102E70009DF806202046611CCCB2AF490A549DF84B
:102E800005202046611CCCB2AB490A549DF80420B1
:102E90002046611CCCB2A8490A549FEDA80A28EE2E
:102EA000000ABDEEC00A10EE100A00B202909DF8B2
:102EB00009202046611CCCB29F490A549DF8082085
:102EC0002046611CCCB29C490A54201FC8704FF0A8
:102ED0000009002006E09849095C494401F0FF0917
:102EE000411CC8B2A042F6DB2046611CCCB292491C
:102EF00001F8009021469048FFF72AFF03B0BDEC8F
:102F0000028BBDE8F08370B52DED0A8B82B00546CB
:102F1000B0EE408AF0EE608AB0EE419AF0EE619A2F
:102F2000B0EE42AAF0EE62AAB0EE43BAF0EE63BA97
:102F3000B0EE44CA0024AA222146641C7E484254B2
:102F40002146641C425405F10F00C2B22146641CA4
:102F50007948425400222146641C42549FED780A6D
:102F600028EE000ABDEEC00A10EE100A00B2019071
:102F70009DF805202146641C6F4842549DF80420AA
:102F80002146641C42549FED6E0A28EE800ABDEE75
:102F9000C00A10EE100A00B201909DF805202146EB
:102FA000641C654842549DF804202046611CCCB244
:102FB00061490A549FED620A29EE000ABDEEC00A7B
:102FC00010EE100A00B201909DF805202046611C09
:102FD000CCB259490A549DF804202046611CCCB259
:102FE00055490A549FED560A29EE800ABDEEC00AE3
:102FF00010EE100A00B201909DF805202046611CD9
:10300000CCB24D490A549DF804202046611CCCB234
:1030100049490A549FED4A0A2AEE000ABDEEC00A49
:1030200010EE100A00B201909DF805202046611CA8
:10303000CCB241490A549DF804202046611CCCB210
:103040003D490A549FED3E0A2AEE800ABDEEC00AB1
:1030500010EE100A00B201909DF805202046611C78
:10306000CCB235490A549DF804202046611CCCB2EC
:1030700031490A549FED320A2BEE000ABDEEC00A18
:1030800010EE100A00B201909DF805202046611C48
:10309000CCB229490A549DF804202046611CCCB2C8
:1030A00025490A549FED260A2BEE800ABDEEC00A80
:1030B00010EE100A00B201909DF805202046611C18
:1030C000CCB21D490A549DF804202046611CCCB2A4
:1030D00019490A549FED1A0A2CEE000ABDEEC00AE7
:1030E00010EE100A00B201909DF805202046611CE8
:1030F000CCB211490A549DF804202046611CCCB280
:103100000D490A54201FC8700026002005E00A4916
:10311000095C3144CEB2411CC8B2A042F7DB204664
:10312000611CCCB204490E5421460348FFF710FE3F
:1031300002B0BDEC0A8B70BD582B00200000C842C5
:1031400000007A44F8B505460E460024AA2221461E
:10315000641CFE4842542146641C42540522214608
:10316000641C425400222146641C425400959DF880
:1031700001202146641C42549DF800202146641C15
:10318000425400969DF801202146641C42549DF84B
:1031900000202146601CC4B2EC484254201FEB4979
:1031A000C8700027002005E0E849095C3944CFB227
:1031B000411CC8B2A042F7DB2046611CCCB2E349F7
:1031C0000F542146E148FFF7C3FDF8BD7FB5002449
:1031D000AA222146641CDD4842542146641C425404
:1031E00006222146641C425400222146641C42549B
:1031F0009DF801202146641C42549DF80020214680
:10320000641C42549DF805202146641C42549DF8DC
:1032100004202046611CCCB2CC490A549DF80920F8
:103220002046611CCCB2C9490A549DF808202046AA
:10323000611CCCB2C5490A549DF80D202046611C82
:10324000CCB2C2490A549DF80C202146601CC4B27D
:10325000BE4842549DF821202046611CCCB2BB4997
:103260000A549DF820202046611CCCB2B7490A546C
:103270009DF825202046611CCCB2B4490A549DF823
:1032800024202046611CCCB2B0490A549DF8292064
:103290002046611CCCB2AD490A549DF82820204636
:1032A000611CCCB2A9490A549DF82D202046611C0E
:1032B000CCB2A6490A549DF82C202046611CCCB201
:1032C000A2490A54201FC8700025002005E09F492C
:1032D000095C2944CDB2411CC8B2A042F7DB2046AC
:1032E000611CCCB299490D5421469848FFF730FD36
:1032F0007FBD7FB50024AA222146641C9348425416
:103300002146641C425403222146641C425400227C
:103310002146641C42549DF801202146641C4254FD
:103320009DF800202146641C42549DF8052021464A
:10333000641C42549DF804202046611CCCB2834991
:103340000A549DF809202046611CCCB27F490A54DA
:103350009DF808202046611CCCB27C490A549DF897
:103360000D202046611CCCB278490A549DF80C20EF
:103370002046611CCCB275490A549DF82120204694
:10338000611CCCB271490A549DF820202146601C72
:10339000C4B26E4842549DF825202046611CCCB230
:1033A0006A490A549DF824202046611CCCB2674922
:1033B0000A549DF829202046611CCCB263490A5466
:1033C0009DF828202046611CCCB260490A549DF823
:1033D0002D202046611CCCB25C490A549DF82C205B
:1033E0002046611CCCB259490A549DF83120204630
:1033F000611CCCB255490A549DF830202046611C0E
:10340000CCB252490A549DF835202046611CCCB2FA
:103410004E490A549DF834202046611CCCB24B49D9
:103420000A54201FC8700025002005E04749095CA8
:103430002944CDB2411CC8B2A042F7DB2046611C32
:10344000CCB242490D5421464048FFF781FC7FBD74
:1034500073B50024AA222146641C3C4842542146EC
:10346000641C425407222146641C42540022214617
:10347000641C42549DF803202146641C42549DF86C
:1034800002202146641C42549DF801202146641C00
:1034900042549DF800202046611CCCB22B490A54AE
:1034A0009DF805202046611CCCB228490A549DF89D
:1034B00004202046611CCCB224490A54201FC87045
:1034C0000025002005E02149095C2944CDB2411CBA
:1034D000C8B2A042F7DB2046611CCCB21B490D5498
:1034E00021461A48FFF734FC7CBD2DE9F84F05460C
:1034F0000E4617469846DDE90AAB0024AA2221466B
:10350000641C124842542146641C42540222214643
:10351000641C425400222146641C425400959DF8CC
:1035200001202146641C42549DF800202146641C61
:10353000425400969DF801202146641C42549DF897
:1035400000202146601CC4B2004801E0582B002036
:10355000425400979DF801202046611CCCB2FE49E0
:103560000A549DF800202046611CCCB2FA490A5446
:10357000CDF800809DF801202046611CCCB2F649B0
:103580000A549DF800202046611CCCB2F2490A542E
:10359000CDF800A09DF801202046611CCCB2EE4978
:1035A0000A549DF800202046611CCCB2EA490A5416
:1035B000CDF800B09DF801202146601CC4B2E64859
:1035C00042549DF800202146601CC4B2E248425497
:1035D0000C9800909DF801202046611CCCB2DE4979
:1035E0000A549DF800202046611CCCB2DA490A54E6
:1035F0000D9800909DF801202046611CCCB2D64960
:103600000A549DF800202046611CCCB2D2490A54CD
:103610000E9800909DF801202046611CCCB2CE4946
:103620000A549DF800202046611CCCB2CA490A54B5
:10363000002000909DF801202046611CCCB2C649B4
:103640000A549DF800202046611CCCB2C2490A549D
:10365000201FC8704FF00009002006E0BE49095C39
:10366000494401F0FF09411CC8B2A042F6DB2046E4
:10367000611CCCB2B84901F800902146B648FFF76A
:1036800067FBBDE8F88F38B50024AA222146641CE8
:10369000B14842542146641C4254F1222146641C24
:1036A000425400222146641C4254AC4890ED010A69
:1036B000BDEEC00A10EE100A00B200909DF8012085
:1036C0002146641CA44842549DF800202146641CF5
:1036D0004254A34890ED000ABDEEC00A10EE100A55
:1036E00000B200909DF801202146641C9A48425483
:1036F0009DF800202046611CCCB297490A54974897
:1037000090ED030ABDEEC00A10EE100A00B2009060
:103710009DF801202046611CCCB28F490A549DF8C7
:1037200000202046611CCCB28B490A548D4890ED94
:10373000040ABDEEC00A10EE100A00B200909DF817
:1037400001202046611CCCB283490A549DF8002018
:103750002046611CCCB280490A54824890ED100A80
:10376000BDEEC00A10EE100A00B200909DF80120D4
:103770002046611CCCB278490A549DF800202046AE
:10378000611CCCB274490A547748008800EB800071
:10379000400000B200909DF801202046611CCCB290
:1037A0006D490A549DF800202046611CCCB26A493C
:1037B0000A546E4890ED020ADFED6D0A20EE200AF1
:1037C000BDEEC00A10EE100A00B200909DF8012074
:1037D0002046611CCCB260490A549DF80020204666
:1037E000611CCCB25C490A54201FC870002500201F
:1037F00005E05949095C2944CDB2411CC8B2A04238
:10380000F7DB2046611CCCB253490D542146524887
:10381000FFF79EFA38BD30B52DED048B81B0B0EEC8
:10382000408AF0EE608AB0EE419A0024AA22214636
:10383000641C494842542146641C42540B222146D0
:10384000641C425400222146641C42549FED490AE4
:1038500028EE000ABDEEC00A10EE100A00B2009079
:103860009DF801202146641C3B4842549DF80020ED
:103870002146641C42549FED3F0A28EE800ABDEEAB
:10388000C00A10EE100A00B200909DF801202146F7
:10389000641C314842549DF800202046611CCCB283
:1038A0002D490A549FED330A29EE000ABDEEC00AE5
:1038B00010EE100A00B200909DF801202046611C15
:1038C000CCB225490A549DF800202046611CCCB298
:1038D00021490A54201FC8700025002005E01E4918
:1038E000095C2944CDB2411CC8B2A042F7DB204696
:1038F000611CCCB218490D5421461748FFF728FA2D
:1039000001B0BDEC048B30BD2DE9F0412DED048BF1
:1039100082B0B0EE408AF0EE608AB0EE419A054681
:103920000E46174600240095AA222146641C0A4828
:1039300042542146641C425401222146641C4254D4
:1039400000222146641C42549FED0B0A28EE000A17
:10395000BDEEC00A12E00000582B00206C3400209D
:103960006805002084340020543A0020C02A00203A
:1039700000401C46CDCCCC3D0000C84210EE100AE1
:1039800000B201909DF805202146641CFE48425477
:103990009DF804202146641C42541FED090A28EEBC
:1039A000800ABDEEC00A10EE100A00B201909DF828
:1039B00005202146641CF44842549DF8042020460A
:1039C000611CCCB2F0490A541FED150A29EE000A19
:1039D000BDEEC00A10EE100A00B201909DF805205D
:1039E0002046611CCCB2E8490A549DF804202046C8
:1039F000611CCCB2E4490A549DF803202046611CA6
:103A0000CCB2E1490A549DF802202046611CCCB298
:103A1000DD490A549DF801202046611CCCB2DA49E8
:103A20000A549DF800202146601CC4B2D648425476
:103A30002046611CCCB2D4490E542046611CCCB245
:103A4000D1490F54201FC8704FF00008002006E035
:103A5000CD49095C414401F0FF08411CC8B2A042B5
:103A6000F6DB2046611CCCB2C74901F80080214634
:103A7000C548FFF76DF902B0BDEC048BBDE8F081DD
:103A80007FB505460024AA222146641CBE48425444
:103A90002146641C425400222146641C42542146A3
:103AA000641C42542146641C45549DF8052021465F
:103AB000641C42549DF804202146641C42549DF825
:103AC00009202046611CCCB2AF490A549DF8082059
:103AD0002046611CCCB2AC490A549DF80D2020460A
:103AE000611CCCB2A8490A549DF80C202046611CE8
:103AF000CCB2A5490A549DF821202046611CCCB2C5
:103B0000A1490A549DF820202046611CCCB29E4950
:103B10000A54201FC8700026002005E09A49095C5D
:103B20003144CEB2411CC8B2A042F7DB2046611C32
:103B3000CCB295490E5421469348FFF709F97FBD51
:103B400010B586B0914800789149097890FBF1F260
:103B500001FB12018E480078401E814202D10120F3
:103B60008C494871894800788B49097890FBF1F2BB
:103B700001FB120188480078401E814202D10120D9
:103B800084498871814800788449097890FBF1F272
:103B900001FB120181480078801E814202D1012080
:103BA0007C494874794800787D49097890FBF1F2A6
:103BB00001FB12017A480078401E814202D10120A7
:103BC00074490871714800787649097890FBF1F2E0
:103BD00001FB120173480078401E814202D101208E
:103BE0006C494873694800786F49097890FBF1F295
:103BF00001FB12016C480078801E814202D1012035
:103C00006449C873614800786849097890FBF1F20B
:103C100001FB120165480078801E814202D101201B
:103C20005C490874594800786149097890FBF1F2C1
:103C300001FB12015E480078C01E814202D10120C2
:103C400054498874514800785A49097890FBF1F238
:103C500001FB120157480078C01E814204D14D4833
:103C6000C07C401C4B49C87448480078401CC0B216
:103C700046490870C82801DD0020087045480078D2
:103C800038B1444A51781078FFF78DF80020414947
:103C900008704048807848B100203E498870464806
:103CA000017846480078FFF75FF838E23948C07875
:103CB00060B100203749C8704FF4C87364224FF4D4
:103CC000967100900420FFF7DBFE28E2314800796E
:103CD000F8B100202F490871394A1278521CD1B22C
:103CE000384A92ED100A5FEDDD0A20EE200ABDEEA3
:103CF000C00A10EE100A344A1278344B93ED001AC1
:103D0000334BD3ED000A334B93ED000AFFF7FCFD74
:103D100005E22048807C60B100201E4988742E484E
:103D200090ED001ADFED2D0A9FED2C0AFFF773FDD1
:103D3000F5E11848407C28B1002016494874FFF787
:103D4000A2FCECE113484079E0B100201149487130
:103D5000234890ED0A0ABDEEC00A10EE100A01B227
:103D60001F4890ED090ABDEEC00A10EE100A00B21D
:103D70001B4A92ED080ABDEEC00A10EE102A12B2DC
:103D8000184B31E067E00000582B00206804002049
:103D900069040020442B00206A0400206B040020EA
:103DA0006C0400206D0400206E0400206F040020CD
:103DB00070040020710400206504002064040020C9
:103DC0002805002084340020B80400202C000020A6
:103DD00028000020240000206805002000000000CA
:103DE000D40500201435002093ED090ABDEEC00A69
:103DF00010EE103A1BB2CDE90132CDE90301FE48C5
:103E000090ED080ABDEEC00A10EE100A00B2FA4C9E
:103E1000009094ED070ABDEEC00A10EE104A23B2DE
:103E2000F54C94ED060ABDEEC00A10EE104A22B21F
:103E3000F14C94ED050ABDEEC00A10EE104A21B215
:103E4000ED4C94ED040ABDEEC00A10EE104A20B20B
:103E5000FFF74BFB63E1E948807950B10020E74967
:103E60008871E74A128891B2E64A1068FFF7F0FAC3
:103E700055E1E248407BA8B30020E049487340F296
:103E8000DC52E148C08900F2DC5080B2DE49898909
:103E900001F2DC5189B2CDE90302DB4805920291BF
:103EA000408900F2DC5080B2D749098901F2DC5127
:103EB00089B2D54CCDE90010648804F2DC54A3B279
:103EC000D14C248804F2DC54A2B2CF4CE48804F232
:103ED000DC54A1B2CC4CA48804F2DC54A0B2FFF7AD
:103EE00008FA1CE1FFE7C548C07BA8B10020C34920
:103EF000C873009001900290C44C0390E488A3B270
:103F0000C24CA488A2B2C14C6488A1B2BF4C248820
:103F1000A0B2FFF75BF902E1B848007C40B1002095
:103F2000B64908744FF4E4717B20FFF70BF9F6E013
:103F3000B248C07958B30020B049C871B448D0ED38
:103F40001E4AB0EE644AD0ED1F4AF0EE643AD0ED5E
:103F50001D4AB0EE643AD0ED1A4AF0EE642AD0ED74
:103F60001B4AB0EE642AD0ED194AF0EE641AD0ED87
:103F7000164AB0EE641AD0ED174AF0EE640AD0ED9E
:103F8000154AB0EE640A0120FEF7BDFFC7E09B486A
:103F9000007A58B30020994908729E48D0ED1E4A15
:103FA000B0EE644AD0ED1F4AF0EE643AD0ED1D4AFF
:103FB000B0EE643AD0ED1A4AF0EE642AD0ED1B4A16
:103FC000B0EE642AD0ED194AF0EE641AD0ED164A2C
:103FD000B0EE641AD0ED174AF0EE640AD0ED154A3F
:103FE000B0EE640A0220FEF78EFF98E08348407A24
:103FF00058B30020814948728748D0ED214AB0EE7D
:10400000644AD0ED224AF0EE643AD0ED204AB0EE98
:10401000643AD0ED1D4AF0EE642AD0ED1E4AB0EEAF
:10402000642AD0ED1C4AF0EE641AD0ED194AB0EEC5
:10403000641AD0ED1A4AF0EE640AD0ED184AB0EED8
:10404000640A0320FEF75FFF69E06C48807AF8B1EC
:1040500000206A4988727048D0ED251AB0EE611AC6
:10406000D0ED261AF0EE610AD0ED241AB0EE610A06
:104070001FEDA64A5FEDA73A1FEDA83A5FEDA92A0A
:104080001FEDAA2A5FEDAB1A0420FEF73CFF46E0C5
:104090005A48C07AC0B100205849C8721FEDB14AD1
:1040A0005FEDB23A1FEDB33A5FEDB42A1FEDB52ACA
:1040B0005FEDB61A1FEDB71A5FEDB80A1FEDB90A2A
:1040C0000520FEF720FF2AE04C48007BC0B100200D
:1040D0004A4908731FEDBF4A5FEDC03A1FEDC13A70
:1040E0005FEDC22A1FEDC32A5FEDC41A1FEDC51A8A
:1040F0005FEDC60A1FEDC70A0620FEF704FF0EE0BB
:104100003E48C07C02280AD100203C49C8741FEDFB
:10411000CD0A00231A4619461846FEF763FE00F042
:10412000D8FF06B010BD70B52DED048B04460E46C9
:104130000025002004E0215C2944CDB2411CC8B216
:10414000711E8142F7DCA01910F8010CA84202D0C0
:10415000BDEC048B70BD2078AA2802D16078AF280E
:1041600000D0F5E7A078012822D12079012802D1DA
:10417000214908701CE02079022803D101201E4942
:10418000487015E02079032804D101201A490870ED
:1041900048700DE02079042803D101201F490870E0
:1041A00006E02079212802DB2079262800DD00BFE7
:1041B000A078022814D12079012806D10F49C871AE
:1041C000087248728872C87208732079A02802D1D8
:1041D00001200A49C8702079A12801D1FCF7FEFA14
:1041E000A07803284DD10E480078012802D0022083
:1041F00000F00DFF207915E014350020442B00203D
:10420000543A0020B0360020CC2B002014000020AF
:10421000D82800209C290020A407002001060020A7
:1042200080040020617941EA0020FE498880A0795D
:10423000E17941EA0020FB49C880207A617A41EAAD
:104240000020F8490880A07AE17A41EA0020F54987
:104250004880207B617B41EA0020F2490881A07BF5
:10426000E17B41EA0020EF494881207C617C41EA02
:104270000020EC498881A07CE17C41EA0020E949EA
:10428000C881A07810287DD12179090209B262790C
:1042900041EA020011F0CCF941EC190B9FEDE20B61
:1042A00053EC102B11F052F941EC180B11F014FAE9
:1042B000DF494865A179090209B2E27941EA0200C1
:1042C00011F0B6F941EC190B9FEDD70B53EC102B05
:1042D00011F03CF941EC180B11F0FEF9D449C86516
:1042E000217A090209B2627A41EA020011F0A0F9CA
:1042F00041EC190B9FEDCC0B53EC102B11F026F970
:1043000041EC180B11F0E8F9C9498865A17A090256
:1043100009B2E27A41EA020011F08AF941EC190B84
:104320009FEDC10B53EC102B11F010F941EC180B61
:1043300011F0D2F9BE494866217B090209B2627BBD
:1043400041EA020011F074F941EC190B9FEDB60B34
:1043500053EC102B11F0FAF841EC180B11F0BCF9EA
:104360000146B348C166A17B090209B2E27B41EA7A
:10437000020011F05DF941EC190B9FEDAB0B53EC12
:10438000102B00E05CE011F0E1F841EC180B11F0AB
:10439000A3F90146A6488166217C090209B2627C24
:1043A00041EA020011F044F941EC190B9FED9E0B1C
:1043B00053EC102B11F0CAF841EC180B11F08CF9EA
:1043C0009B494867A17C090209B2E27C41EA0200EC
:1043D00011F02EF941EC190B9FED930B53EC102BC0
:1043E00011F0B4F841EC180B11F076F90146904841
:1043F000C167217D090209B2627D41EA020011F024
:1044000017F941EC190B9FED880B53EC102B11F0B1
:104410009DF841EC180B11F05FF901468448816763
:104420008448807838B9012082498870A078824910
:10443000087082480570FCF7CBF90120804908809C
:10444000A07811287DD12179090209B2627941EA67
:10445000020011F0EDF841EC190B9FED730B53ECDA
:10446000102B11F073F841EC180B11F035F9754968
:104470004865A179090209B2E27941EA020011F026
:10448000D7F841EC190B9FED680B53EC102B11F092
:104490005DF841EC180B11F01FF96A49C865217AE3
:1044A000090209B2627A41EA020011F0C1F841EC56
:1044B000190B9FED5D0B53EC102B11F047F841ECFD
:1044C000180B11F009F95F498865A17A090209B250
:1044D000E27A41EA020011F0ABF841EC190B9FEDD2
:1044E000520B53EC102B11F031F841EC180B11F07A
:1044F000F3F854494866217B090209B2627B41EA1C
:10450000020011F095F841EC190B9FED470B53ECAD
:10451000102B11F01BF841EC180B11F0DDF80146DF
:104520004848C166A17B090209B2E27B41EA020068
:1045300011F07EF841EC190B9FED3B0B53EC102B67
:1045400000E05CE011F002F841EC180B11F0C4F847
:1045500001463C488166217C090209B2627C41EA3D
:10456000020011F065F841EC190B9FED2F0B53EC95
:10457000102B10F0EBFF41EC180B11F0ADF83149A6
:104580004867A17C090209B2E27C41EA020011F00D
:104590004FF841EC190B9FED240B53EC102B10F04E
:1045A000D5FF41EC180B11F097F801462548C1677B
:1045B000217D090209B2627D41EA020011F038F85A
:1045C00041EC190B9FED180B53EC102B10F0BEFFB4
:1045D00041EC180B11F080F801461A488167154824
:1045E000807838B9012013498870A0781249087082
:1045F00012480570FCF7ECF8012011490880A078FA
:1046000012287CD12179090209B2627941EA0200BB
:1046100011F00EF841EC190B9FED030B53EC102B2E
:1046200012E000008A2B0020FCA9F1D24D62503F1D
:10463000D8280020442B00206404002065040020BA
:10464000660400209C29002010F080FF41EC180B2C
:1046500011F042F8D4490866A179090209B2E27959
:1046600041EA020010F0E4FF41EC190B1FED120BC0
:1046700053EC102B10F06AFF41EC180B11F02CF8E2
:10468000C9498866217A090209B2627A41EA0200C0
:1046900010F0CEFF41EC190B1FED1D0B53EC102B4E
:1046A00010F054FF41EC180B11F016F8BE494866A3
:1046B000A17A090209B2E27A41EA020010F0B8FFD9
:1046C00041EC190B1FED280B53EC102B10F03EFFA3
:1046D00041EC180B11F000F8B3490867217B09027F
:1046E00009B2627B41EA020010F0A2FF41EC190B13
:1046F0001FED330B53EC102B10F028FF00E070E09F
:1047000041EC180B10F0E8FFA7498867A17B09026C
:1047100009B2E27B41EA020010F08AFF41EC190B7A
:104720001FED3F0B53EC102B10F010FF41EC180B5A
:1047300010F0D2FF9C494867217C090209B2627CD3
:1047400041EA020010F074FF41EC190B1FED4A0B17
:1047500053EC102B10F0FAFE41EC180B10F0BCFFDC
:104760009149C1F88000A17C090209B2E27C41EACA
:10477000020010F05DFF41EC190B1FED550B53ECDF
:10478000102B10F0E3FE41EC180B10F0A5FF86494A
:10479000C1F88800217D090209B2627D41EA020068
:1047A00010F046FF41EC190B1FED610B53EC102B81
:1047B00010F0CCFE41EC180B10F08EFF7A49C1F8D6
:1047C00084007A48807838B9012078498870A078C8
:1047D0007749087077480570FBF7FAFF01207649A2
:1047E0000880A078132854D12179090209B262798E
:1047F00041EA020010F01CFF41EC190B1FED760B93
:1048000053EC102B10F0A2FE41EC180B10F064FFDB
:104810006549C1F89000A179090209B2E27941EA3B
:10482000020010F005FF41EC190B1FED810B53EC5A
:10483000102B10F08BFE41EC180B10F04DFF5A4975
:10484000C1F89800217A090209B2627A41EA0200AD
:1048500010F0EEFE41EC190B1FED8D0B53EC102BFD
:1048600010F074FE41EC180B10F036FF4E49C1F801
:1048700094004E48807838B901204C498870A0785F
:104880004B4908704B480570FBF7A2FF01204A49CD
:104890000880A07814280AD14448807838B90120CB
:1048A00042498870A0784249087042480570A07853
:1048B00015280AD13D48807838B901203B498870D5
:1048C000A0783B4908703B48057000BF40E410B534
:1048D00004463A48007838B9AA2C05D10120374956
:1048E0000870374804705DE034480078012807D12B
:1048F000AF2C05D10220314908703148447051E095
:104900002E480078022807D1F12C05DA03202B4924
:1049100008702B48847045E02848007803280CD1A3
:10492000322C0ADA0420254908702548C47025482D
:10493000047000202449087034E0204800780428DE
:1049400019D120480078002815DD1E480078401E47
:104950001C4908701C4800781B490978491C1A4AF0
:104960001170001D16490C5416480078D0B9052066
:104970001249087016E01148007805280FD1002070
:104980000E49087010480078001D0D490C540E485F
:104990000078401DC1B20A48FFF7C5FB02E00020C5
:1049A0000649087010BD0000A4070020442B002019
:1049B00064040020650400206604002074040020C4
:1049C0009A2B00207204002073040020024600206D
:1049D00007E0FE4B1B5632F8133021F81030431C11
:1049E000D8B20828F5DB7047F94890ED021ADFEDE0
:1049F000F91AB4EEE11AF1EE10FA55D20120F64997
:104A00000870F34890ED031ADFEDF21AB4EEE11AE4
:104A1000F1EE10FA1AD2F148B0F90000401CC8B308
:104A2000EF480078B0B3ED48B0F9000001EE100A8D
:104A3000B8EEC11ADFEDEB1A01EE801ABDEEC11A15
:104A400011EE100A00B2E549088032E0E04890ED2E
:104A5000031ADFEDE51AB4EEE11AF1EE10FA1ADDF1
:104A6000DE48B0F90000401CA0B1DD48007888B9EC
:104A7000DA48B0F9000001EE100AB8EEC11ADFED15
:104A8000D91A01EE801ABDEEC11A11EE100A00B259
:104A9000D24908800DE0D148B0F90000401C40B96F
:104AA0000020CE49088004E00020CC490880CA4993
:104AB0000870CA48B0F90000B0F5967F12DD4FF0DB
:104AC000FF30C6490880C648007840B90120C44973
:104AD00008700220C5494870C549087002E00020EE
:104AE000BF490870BA4890ED021ADFEDBA1AB4EE69
:104AF000E11AF1EE10FA37D290ED031ADFEDB51A94
:104B0000B4EEE11AF1EE10FA2ED290ED001ADFEDBC
:104B1000B61AB4EEE11AF1EE10FA25DD90ED011AA5
:104B2000DFEDB11AB4EEE11AF1EE10FA1CDDB14876
:104B3000B0F90000B0F5FA6F12DAAE48B0F9000033
:104B400001EE100AB8EEC11ADFEDA61A01EE801AC6
:104B5000BDEEC11A11EE100A00B2A649088006E0A7
:104B60000120A549087002E00020A24908809C4865
:104B7000007888B39848007801282ED1F5EEC00A55
:104B8000F1EE10FA02DDB0EE601A01E0B1EE601A4B
:104B9000DFED9A1AB4EEE11AF1EE10FA1DD2984840
:104BA000B0F90000B0F5FA6F12DA9548B0F90000DC
:104BB00001EE100AB8EEC11ADFED8A1A01EE801A72
:104BC000BDEEC11A11EE100A00B28D49088007E04F
:104BD00000208349087003E0FFE70020884908802F
:104BE00070473FB5B0EE402A054686480078012858
:104BF00004D185492846FFF7E9FE07E0814800789F
:104C0000022803D180498148FFF7E0FE0024E7E154
:104C10007D4830F8140040F6C411884205DC7A481B
:104C200030F81400B0F5FA7F07DA0120784908550A
:104C30000020784921F8140012E0764830F814007A
:104C4000401C744921F81400084630F81400C828A4
:104C500006DD4FF4FA6021F8140000206C49085575
:104C600068480078012803D06648007802287CD183
:104C70006748005D0028FAD1634830F8140000B29C
:104C80002DF814006448005D002877D13DF9140028
:104C9000624931F91410401A00EE100AB8EEC01A39
:104CA0005F4830F914005D4931F91410401A00EEE4
:104CB000100AB8EEC00AC1EE000A9FED4A1A9FED35
:104CC000590A10EE810ABDEEC00A10EE100A00B2B9
:104CD00010F5FA7F01DA54484CE03DF914004F49D1
:104CE00031F91410401A00EE100AB8EEC01A4C4800
:104CF00030F91400494931F91410401A00EE100A35
:104D0000B8EEC00AC1EE000A9FED361A9FED450AC3
:104D100010EE810ABDEEC00A10EE100A00B2B0F526
:104D2000FA7F02DD4FF4FA7024E03DF914003B49AC
:104D300031F91410401A00EE100AB8EEC01A3848C3
:104D400030F91400354931F91410401A00EE100AF8
:104D5000B8EEC00AC1EE000A9FED221A9FED310A9B
:104D600010EE810ABDEEC00A01E0B0E006E010EEF0
:104D7000100A00B22D4921F81400A8E03DF91400F2
:104D8000264931F91410401A00EE100AB8EEC01A84
:104D9000234830F91400214931F91410401A00EE6B
:104DA000100AB8EEC00AC1EE000A9FED0E1A9FED80
:104DB0001D0A10EE810ABDEEC00A10EE100A00B204
:104DC00010F5FA7F34DA18487CE0000078040020FF
:104DD000DC2B00200000C8C3B9040020BA04002066
:104DE000B804002000007A440000C84314350020B5
:104DF00054000020BC04002001060020000096435F
:104E0000BE040020800400200C2C00208A2B0020EF
:104E100081040020FC2B0020AC0400209C04002016
:104E20008C0400200000FA430CFEFFFFCC2B002076
:104E30003DF91400794931F91410401A00EE100AB6
:104E4000B8EEC01A764830F91400744931F91410DC
:104E5000401A00EE100AB8EEC00AC1EE000A1FEDBB
:104E60001F1A1FED100A10EE810ABDEEC00A10EEE7
:104E7000100A00B2B0F5FA7F02DD4FF4FA7021E0BB
:104E80003DF91400654931F91410401A00EE100A7A
:104E9000B8EEC01A624830F91400604931F91410B4
:104EA000401A00EE100AB8EEC00AC1EE000A1FED6B
:104EB000331A1FED240A10EE810ABDEEC00A10EE6F
:104EC000100A00B2404200B2564921F814009FED8A
:104ED000560A22EE000A554880ED000A3DF91400FA
:104EE00000EE100AB8EEC00A514800EB8400D0ED85
:104EF000000A30EE600AB5EEC00AF1EE10FA0DDDE0
:104F00003DF9140000EE100AB8EEC00A484800EB64
:104F10008400D0ED000A30EE600A0EE03DF9140086
:104F200000EE100AB8EEC00A414800EB8400D0ED54
:104F3000000A30EE600AB1EE400ADFED3E0AB4EE40
:104F4000E00AF1EE10FA1DD2364830F9140000EEF6
:104F5000100AB8EEC00A364800EB8400D0ED000A13
:104F600070EE600A324800EB840090ED000A2F4892
:104F700090ED001A01EE200A2D4800EB840080ED30
:104F8000000A20E0274830F9140000EE100AB8EEBD
:104F9000C00A274800EB8400D0ED000A70EE600ADA
:104FA000234800EB840090ED000A204890ED001AA1
:104FB000F6EE001A21EE211A01EE200A1C4800EB41
:104FC000840080ED000A1C48007838B91B4800783E
:104FD00020B99FED1B0A164880ED020A601CC4B27E
:104FE000082CFFF615AE1748D0ED000AB0EE420AC5
:104FF000FFF7FAFC14480088401C80B21249088070
:10500000C82803DD002008800B4908703FBD0A490D
:10501000087000210C4A1180704700009C04002099
:105020008C040020CC2B002034337B42B4040020BD
:10503000DC2B00200000C84280040020B8040020BF
:105040000000FAC3680500208A0400200DF0FABBB6
:1050500070470020704700207047002070470020F4
:1050600070470020704700207047002070470020E4
:1050700070470020704700207047002070470020D4
:10508000704700207047002070470DF002BC704749
:1050900000207047002070470DF046BA70470000AE
:1050A00010B50CF045FC01200CF04DFC10BD70B5A6
:1050B000024600200AE0145C864B1D781B785B1CBE
:1050C000844E3370844B5C55431CD8B28842F2DB6B
:1050D00070BD10B57F4800788049097888425BDD53
:1050E0007C4800787D490978401A3F281BDB002066
:1050F0007B4908703F207B49087000200BE077490E
:105100000A780978491C754B197073498A5C754B8C
:10511000411C5A54C8B23F28F1DB4022714900209B
:105120000DF09DFC9FE06E480078401C6C490870B3
:10513000084600786C4909788842F3D10020684914
:1051400008706448007865490978401A6549087014
:10515000002015E05F490978604A1278891A814277
:1051600008DD5E49097801445B4A525C5D4B411C95
:105170005A5403E000225B4B411C5A54411CC8B2F4
:105180003F28E7DB534800785449087040225549CE
:1051900000200DF064FC66E04E4800784F49097825
:1051A000884260DA4D480078C0F580704949097836
:1051B00008443F281BDB0020494908703F2049492B
:1051C000087000200BE045490A780978491C434BD8
:1051D000197041498A5C434B411C5A54C8B23F285C
:1051E000F1DB40223F4900200DF039FC3BE03C4818
:1051F0000078401C3A490870084600783A49097816
:10520000884230D100203649087034480078404246
:1052100030490978084433490870002018E02F49C4
:105220000978C1F580712B4A12781144814209DD59
:105230002A4909780144C9B2274A525C294B411CCA
:105240005A5403E00022274B411C5A54411CC8B257
:105250003F28E4DB1F48007820490870402221499C
:1052600000200DF0FCFB10BD10B50446012C02D04F
:10527000032C11D10EE059B923B1012B05D0022B1B
:1052800004D100E000BF402010BD00BF00BF00BF40
:1052900000BF01E00120F7E700BF0020F4E72DE99F
:1052A000F0470646884614469946089F022E02D0CB
:1052B000032E0CD10AE0012504E0605DFFF707FB37
:1052C000681CC5B22078A842F7DA00E000BF00BF32
:1052D000BDE8F087CB040020402F0020CA04002046
:1052E000CC04002040300020C904002010B505483F
:1052F00010F07EF8022101EB4000C0B210BD024860
:1053000070470000843000209D3000209FEDFA2A75
:1053100020EE822A62EE012AB7EE003A83EE222ABC
:10532000F7EE002A32EE222AB7EE003AC3EE022A46
:1053300090ED032A31EEC22A90ED003A32EE433A64
:1053400090ED002A02EE832A80ED002A90ED032AD8
:1053500031EEC22A22EE022A80ED012A90ED012AC6
:10536000D0ED002A90ED003A02EE832AB5EEC02A75
:10537000F1EE10FA02D1DFEDE12A0DE090ED002A06
:1053800022EE023A90ED012AD0ED002AD0ED003A4B
:1053900002EEA32AC3EE022AF5EEC02AF1EE10FABD
:1053A00002D2DFEDD62A45E090ED012AD0ED002AA9
:1053B00090ED003A02EE832AB5EEC02AF1EE10FA23
:1053C00002D1DFEDCE2A0DE090ED002A22EE023A66
:1053D00090ED012AD0ED002AD0ED003A02EEA32A8A
:1053E000C3EE022AB7EE002AF4EEC22AF1EE10FA5A
:1053F00002DDF7EE002A1DE090ED012AD0ED002A33
:1054000090ED003A02EE832AB5EEC02AF1EE10FAD2
:1054100002D1DFEDBA2A0DE090ED002A22EE023A29
:1054200090ED012AD0ED002AD0ED003A02EEA32A39
:10543000C3EE022AC0ED022A90ED022A22EE002AD3
:10544000DFEDAD2A22EE222A22EE012AF7EE002A13
:1054500082EE823AB7EE002A33EE022AB7EE003A25
:10546000C3EE022A90ED032A31EEC23A90ED032AF0
:1054700002EE832A80ED032A704730B50C4615886A
:105480006D1CADB21580A54201DB00251580158885
:1054900000EB8505D5ED000A158800EB850585ED47
:1054A000000A70EE601A01EE104AB8EE412A81EE51
:1054B000821AD3ED001A31EE211A83ED001A93ED12
:1054C000001AD3ED001A70EE611A9FED8D2A02EEDC
:1054D000211A83ED001A30BD2DE9F04704460E462F
:1054E0009C460027B94633461088401C80B2108085
:1054F000984201DB002010801188108844F820C0F9
:10550000581E884222DD19E054F8210000EE900A6E
:10551000B8EEE00A481C54F8200044F82100FDEEE3
:10552000C00A10EE900A01F1010A44F82A0001278E
:10553000481C81B2581E884200D106E054F821A0D0
:10554000481C54F820008245DEDC00BF002923DD22
:105550001AE054F8210000EE900AF8EEE00AB0EEEE
:10556000600A481E54F8200044F82100FDEEC00AED
:1055700010EE900AA1F1010A44F82A004FF0FF371B
:10558000481E81B201B906E054F821A0481E54F823
:1055900020008245DDDB00BF108820B9012F02D139
:1055A000581E10800CE0B2F800A0581E824504D1AD
:1055B000781C10B90020108002E01088C01B1080F9
:1055C00000EE903AF8EE600AB5EE001A60EE810A3D
:1055D000FCEEE00A10EE900A1FFA80F8002506E0C3
:1055E00008EB050054F820008144681C85B203EBE9
:1055F000D37AB5EB6A0FF3DB9A4603EBDA7040100F
:1056000099FBF0F0BDE8F08770B504460D461646EC
:10561000D4ED020A60EEA00A94ED011AD4ED011A4D
:1056200041EE210AB0EE600AFDF7CAF8354880ED78
:10563000000AD4ED020A60EEA00A94ED001AD4ED3F
:10564000001A41EE210AB0EE600AFDF7B9F82E48C3
:1056500080ED000A94ED020AB5EEC00AF1EE10FAF0
:1056600002D24FF0FF3000E001202849087095ED8C
:10567000000A2448D0ED000A60EE200A94ED001ADA
:10568000084690F9000000EE100AB8EEC00A21EEBC
:10569000000A95ED021A40EE410AC6ED000A0846DE
:1056A00090F9000000EE100AB8EEC00A1648D0EDDE
:1056B000000A20EE200AD5ED010A20EE200AD4EDE2
:1056C000010A95ED021A00EEC10A86ED010A94ED79
:1056D000000AD5ED000A20EE200AD4ED010A95ED6E
:1056E000011A00EE810AD4ED020A95ED021A00EECD
:1056F000810A86ED020A70BDC3F5C84000000000B3
:10570000ACC52737D4040020D8040020D0040020E2
:105710009FEDFA0AFA4880ED000AFA4890ED180A5F
:10572000DFEDF90A20EE200AF54880ED010A9FED31
:10573000F70A80ED020A9FEDF50A80ED030A9FED5E
:10574000F30A80ED040A9FEDF10A80ED050A9FED52
:10575000F00A80ED060AEB4890ED180AF7EE080A09
:1057600020EE200AEB4880ED000AE64890ED1A0A88
:10577000DFEDE60A20EE200AE64880ED010A9FED03
:10578000E30A80ED020ADF4890ED190ADFEDE20A34
:1057900020EE200ADF4880ED030AB3EE040A80ED14
:1057A000040A9FEDDE0A80ED050AB6EE000A80EDE0
:1057B000060AD44890ED1C0AF7EE080A20EE200AEB
:1057C000D74880ED000ACF4890ED1E0ADFEDCF0AE2
:1057D00020EE200AD24880ED010ACA4890ED1D0A49
:1057E000DFEDCB0A20EE200ACD4880ED020A9FEDC6
:1057F000C30A80ED030AB3EE040A80ED040AB6EE94
:10580000000A80ED050A9FEDC10A80ED060A704787
:1058100010B52DED068BB0EE408AB0EE609A0446CE
:10582000F0EE418A84B90020BE490870BE49087074
:105830009FEDB60AF0EE408A9FEDB40ABB4880EDBA
:10584000000A0020BA490870BA4890ED000A38EE04
:10585000C00AB5EEC00AF1EE10FA04DD90ED000AC0
:1058600038EEC00A06E0B34890ED000A38EEC00AF0
:10587000B1EE400AF6EE000AB4EEE00AF1EE10FADC
:105880001BDDAA4890ED000AF2EE040AB4EEE00A2D
:10589000F1EE10FA0ED2A84890ED000ADFEDA70A4B
:1058A000B4EEE00AF1EE10FA04DD9FEDA50A9F4880
:1058B00080ED000A9F48C0ED008ADFEDA20A79EE74
:1058C000600AB0EE600A9FEDA01ADFED900AFDF7C6
:1058D0000CF9B0EE40AAB2EE041ADFED8C0AFDF727
:1058E0001FF9954880ED000A90ED000AB5EEC00A58
:1058F000F1EE10FA25DDD0ED000A9FED941A80EE4E
:10590000810ADFED930A20EE200A924880ED000A1A
:10591000894890ED000ADFED900AB4EEE00AF1EE5E
:1059200010FA22DD01207F49087081480078E0B933
:1059300001207F4908709FED890A7C4880ED000AAC
:1059400013E078480078012801D1774908707A4837
:1059500090ED000ADFED7D0A80EE201A9FED800AAF
:1059600021EE000A7B4880ED000A7A4890ED000A9B
:10597000DFED7C0AB4EEE00AF1EE10FA02D29FED00
:10598000790A0FE0734890ED000ADFED710AB4EE7A
:10599000E00AF1EE10FA02DD9FED6D0A02E06D48BB
:1059A00090ED000A6B4880ED000A9FED6F0A28EE2B
:1059B000000AB7EE001AC1EE000AB7EE000A30EE98
:1059C000800AF7EE000A80EE801A90ED000ADFED03
:1059D000640AC0EE201AF5EEC01AF1EE10FA06DDE8
:1059E000D0ED000ADFED5E1A80EEA10A08E059480A
:1059F00090ED000ADFED5A0AC0EE201AB1EE610AFE
:105A0000F6EE080AF5EE001A41EE800A5148D0ED94
:105A1000001A564890ED000A10EEA10AD0ED000AD7
:105A200041EE000AC0ED000A90ED000ADFED4D0ADC
:105A3000B4EEE00AF1EE10FA02D29FED4A0A0FE04E
:105A40004A4890ED000ADFED420AB4EEE00AF1EEBA
:105A500010FA02DD9FED3E0A02E0444890ED000A94
:105A6000424880ED000A4248B0EE480A00F044FD8A
:105A70003F4890ED010A3D48D0ED000A70EEC00AA3
:105A80003C4890ED000A00EE880A80ED000A2648A6
:105A900000784EF6784110FB01F000EE100AB8EEE7
:105AA000C00A3448D0ED000AB4EEE00AF1EE10FA74
:105AB00008DD1D48007810FB01F000EE100AB8EE7A
:105AC000C00A5CE01848007841F2883110FB01F010
:105AD00000EE100AB8EEC00A2648D0ED000AB4EE77
